:400000000080002011000000491A0000491A000008B5044B1A6803F53F5302331A6001F01BFD00BFFA46004010B5054C237833B9044B13B10448AFF300800123237010BD98
:400040004881FF1F0000000038240000084B10B51BB108490848AFF300800848036803B910BD074B002BFBD0BDE81040184700BF000000004C81FF1F38240000C880FF1F4A
:400080000000000008B54FF0FF31164B186800F09FFE0028F7D0144B1B78022B0DD0032B15D0012BEFD1012002F0B6F8002002F05BF9002002F064F9E5E7002002F0ACF8A4
:4000C000012002F051F9002002F05AF9DBE7002002F0A2F8002002F047F9012002F050F9D1E700BF6481FF1FAC02002008B502F05DF8FCE7034B044ADA62044A9A63044A82
:40010000DA6370470080FF1F2109000081090000C509000010B582B0FFF7ECFF62B601F0CDFF01F023FD012000F014FE174B186003220021012000F065FD154C2060002234
:400140000421012000F05EFD606000F063F84EF6317000F00DFB04F10803019301230093002364220B490C4801F01AF80C34019402230093002364220849094801F010F896
:4001800001F040F8002002B010BD00BFBC0400206481FF1F4C2400008500000058240000ED0000004FF0A00383F31188BFF36F8FBFF34F8FFEE700BF4FF0A00383F31188B1
:4001C000BFF36F8FBFF34F8FFEE700BF08B5002002F0B2F8322001F0E7FC012002F0ACF8782001F0E1FC08BD10B50446002002F0AFF8204602F042F810BD00BF38B504467D
:400200000D46012002F0A4F82946204602F042F838BD00BF2DE9F041E0B04FF4BE72002101A802F000F911258DF8045078238DF80630B1238DF8183003208DF8190001241C
:400240008DF81A402C228DF81B202D238DF81C30B2218DF82C108DF82D008DF82E408DF82F208DF83030B3218DF8401006218DF841108DF842408DF843208DF844308DF86B
:4002800045408DF846208DF84730B4218DF854108DF8554007278DF85670B6238DF8683002238DF869308DF86A10F0218DF86B10C0218DF87C108DF87D00A2218DF87E106E
:4002C0008DF87F3004218DF88010C1268DF890608DF89140C5268DF892604FF0C20E8DF8A4E08DF8A5304FF00A0E8DF8A6E04FF0C30E8DF8B8E08DF8B9304FF08A0C8DF8B3
:40030000BAC04FF02A0E8DF8BBE04FF0C4088DF8CC808DF8CD308DF8CEC04FF0EE0C8DF8CFC08DF8E0608DF8E1408DF8E21036268DF8F4608DF8F540C8268DF8F660E0264E
:400340008DF808618DF809510F258DF80A511A268DF80B618DF80C5118268DF80D612F268DF80E6128268DF80F6120268DF8106122268DF811611F268DF812614FF01B0CAE
:400380008DF813C123268DF8146137268DF815618DF817718DF8183110268DF819614FF0E1088DF81C818DF81D618DF81E518DF81FC18DF8205117258DF8215133258DF88D
:4003C00022518DF8232129228DF824212E258DF8255130258DF826518DF8275139258DF828513F258DF829518DF82B718DF82C018DF82D618DF830E18DF831118DF8333125
:4004000081238DF835312B238DF844318DF845118DF84741A0238DF849313A238DF858318DF8594105238DF85A318DF86C21204601F082FF204601F08BFF01F06FFFFFF759
:40044000C5FE002416E001AEA5002A199300F718F05CFFF7C9FE2B199800023079783044FFF7CCFE7A780232B85C08B101F09CFB0134E4B2122CE6D9A023802207490848E2
:4004800000F004F90749012000F088F90649002000F084F960B0BDE8F08100BFAD040000C80400203D0500002906000083B27F2B43D8002941DB9F293FDCF0B583B0164648
:4004C0000D4604462A20FFF78FFE00278DF80470E0B28DF805008DF8067001308DF8070004210DEB0100FFF789FE2B20FFF77CFE8DF80470E9B28DF805108DF806700131ED
:400500008DF8071004210DEB0100FFF777FE2C20FFF76AFE06F4FC6242EAD62242EAC62636B2C6F307238DF804308DF80560022101A8FFF763FE03B0F0BD70472DE9F04763
:4005400082B0BDF8286084B27F2C59D800295ADB9F295BDC94B27F2C5BD8002B5CDB9F2B5DDC1D469246894680462A20FFF73CFE00248DF804405FFA88F88DF805808DF875
:4005800006408DF807A004210DEB0100FFF736FE2B20FFF729FE8DF804405FFA89F98DF805908DF806408DF8075004210DEB0100FFF724FE2C20FFF717FE06F4FC6343EAA1
:4005C000D62343EAC62636B2B7B213E03B0A8DF804308DF80560022101A8FFF70FFE0134E4B200E04C46691C8C42EFDB08F101085FFA88F80AF101039845F3DB002010E0FF
:400600004FF0FF300DE04FF0FF300AE04FF0FF3007E04FF0FF3004E04FF0FF3001E04FF0FF3002B0BDE8F08710B582B084B27F2C15D8002916DB9F2917DC94B27F2C17D85B
:40064000002B18DB9F2B19DC904201D0994218D1BDF810400094FFF771FF002013E04FF0FF3010E04FF0FF300DE04FF0FF300AE04FF0FF3007E04FF0FF3004E04FF0FF30FE
:4006800001E04FF0FF3002B010BD00BF01608280C380042101844184053A12B28284053B1BB2C3848283C383012380F8403080F841300023C36283864386C3860387C363E8
:4006C00045F65D42A0F846204FF6FF72A0F84220A0F8443003614361836108E003F1090200EBC2020021516011720133DBB2022BF4D9024B18600120704700BF8881FF1F51
:400700002DE9F04383B081460D4616469846BDF82870824201DA91460646A84502DA2B4645469846114B1B6893F8582012F0020F17D05C6D00974346324629464846A04716
:4007400078B910E0094B1B681B683A46294620469847013424B200E04C46A642F2DA01352DB2A845F8DA03B0BDE8F0838881FF1F00B583B0084B1B68B3F90420B3F9063063
:40078000013B013A00901BB212B200210846FFF7B7FF03B05DF804FB8881FF1F022807D8044B1B68093003EBC000416003230372704700BF8881FF1F38B5044610F0070F70
:4007C00002D020F00704083400F048FD114B1B682BB9104A02F10C0323F0070313600E4BD3F83C391C4447F6F772944208D8A34208D2084A15681D44074BC3F83C4902E034
:40080000002500E0002500F0B3FD0DB9FFF7D4FC284638BD9481FF1F5CF8FF1F704700BF00F1080343604FF0FF328260C360036100230360704700BF00230361704700BF73
:4008400043684B609A688A609A68516099600861036801330360704730B40D68B5F1FF3F01D1026907E000F1080200E01A4653681C68A542FAD253684B6099608A605160E0
:40088000086103680133036030BC704703694268816891608268416851605A68904201D182685A60002202611A68013A1A601868704700BF82B0002301934FF0A00383F3F9
:4008C0001188BFF36F8FBFF34F8F019B002BFCD002B0704706480068006880F3088862B661B6BFF34F8FBFF36F8F00DF00BF000008ED00E04FF0807340F8043C21F0010163
:4009000040F8081C034B40F80C3C40F8202C4038704700BFB50800000000000000000000074B19680868B0E8F00F80F30988BFF36F8F4FF0000080F311884EF00D0E704775
:40094000740200204FF0A00383F31188BFF36F8FBFF34F8F024A136801331360704700BFCC80FF1F034A1368013B13600BB983F311887047CC80FF1F0000000000000000F7
:40098000EFF30980BFF36F8F0D4B1A6820E9F00F10602DE908404FF0A00080F3118800F053FD4FF0000080F31188BDE8084019680868B0E8F00F80F30988BFF36F8F704716
:4009C0007402002008B54FF0A00383F31188BFF36F8FBFF34F8F00F04BFC18B14FF08052024B1A60002383F3118808BD04ED00E0054B00221A6005490A6045F6BF51044A96
:400A0000116007221A60704710E000E018E000E014E000E010B50B4B1A6842F460021A601A6842F060421A60FFF7E2FF0024064B1C60FFF74FFF00F007FDFFF73BFF20465A
:400A400010BD00BF20ED00E0CC80FF1F436A23B1036B1868C0F1050070470020704700BF10B50446FFF76EFFA26BE36B9A4201D1012400E00024FFF775FF204610BD00BF21
:400A800010B50446FFF75EFFA36B0BB9012400E00024FFF767FF204610BD00BF70B504461646856B026C3AB9036843BB806800F005FE0023A36029E06EB9406801F0A8FC98
:400AC0006268236C13446360A268934219D32368636000201AE0C06801F09AFC236C5B42E2681A44E26021688A4202D2A2681344E360022E07D145B1013D002006E000205C
:400B000004E0002002E0002000E000200135A56370BD00BF38B50546FFF714FF95F8454064B20AE06B6A53B105F1240000F0F0FC08B100F05DFD013C64B2002CF2DCFF23F1
:400B400085F84530FFF70EFFFFF7FCFE95F8444064B20AE02B6953B105F1100000F0D8FC08B100F045FD013C64B2002CF2DCFF2385F84430FFF7F6FE38BD00BF38B50446FD
:400B80000D46FFF7DFFE2168E26B236C03FB0210A0600020A0636160013A02FB0313E360FF2384F8443084F845307DB92369ABB104F1100000F0ACFC80B14FF08052094BD1
:400BC0001A60BFF34F8FBFF36F8F07E004F11000FFF726FE04F12400FFF722FEFFF7C2FE012038BD04ED00E010B5029B0C4609B91B6000E01A60D8631C6401211846FFF7ED
:400C0000BDFF10BDF0B583B005460E46174601FB00F04830FFF7D0FD044638B100903B4600F1480231462846FFF7DEFF204603B0F0BD00BFF0B585B004460F4601921E4604
:400C40000025FFF77FFEA26BE36B9A4201D3022E21D1324639462046FFF720FF636A6BB104F1240000F054FC88B14FF08052324B1A60BFF34F8FBFF36F8F08E038B14FF06A
:400C800080522D4B1A60BFF34F8FBFF36F8FFFF769FE01204EE0019B1BB9FFF763FE002048E01DB902A800F06DFC0125FFF75AFE00F0D4FAFFF746FE94F844305BB2B3F17F
:400CC000FF3F02D1002384F8443094F845305BB2B3F1FF3F02D1002384F84530FFF742FE01A902A800F058FCF0B92046FFF7B8FEA0B1019904F1100000F0FAFB2046FFF73F
:400D000009FF00F035FB00289BD14FF080520A4B1A60BFF34F8FBFF36F8F92E72046FFF7F9FE00F025FB8CE72046FFF7F3FE00F01FFB002005B0F0BD04ED00E048B108B528
:400D4000002181600160C1600B460A46FFF772FF08BD704710B5024600210120FFF752FF0446FFF7EBFF204610BD00BF38B5EFF311844FF0A00383F31188BFF36F8FBFF302
:400D80004F8F826BC36B9A4218D290F845305BB201328263B3F1FF3F0AD1436A83B10D46243000F0B5FB68B175B1012028600CE001335BB280F84530012006E0002004E060
:400DC000012002E0012000E0012084F3118838BD70B584B00446019100263546FFF7B2FDA36BCBB1013BA363236813B900F0F0FCA060236963B104F1100000F089FB38B14D
:400E00004FF080523B4B1A60BFF34F8FBFF36F8FFFF7A8FD01206BE0019B1BB9FFF7A2FD002065E01DB902A800F0ACFB0125FFF799FD00F013FAFFF785FD94F844305BB2A5
:400E4000B3F1FF3F02D1002384F8443094F845305BB2B3F1FF3F02D1002384F84530FFF781FD01A902A800F097FB40BB2046FFF707FEF0B123683BB9FFF764FDA06800F0BE
:400E8000BFFB0646FFF76EFD019904F1240000F02FFB2046FFF73EFE00F06AFA00289DD14FF08052134B1A60BFF34F8FBFF36F8F94E72046FFF72EFE00F05AFA8EE7204631
:400EC000FFF728FE00F054FA2046FFF7D9FD002884D066B1FFF736FD2046FFF7B7FD0146A06800F02FFCFFF73DFD002000E0002004B070BD04ED00E0074B9B6A1B6823B978
:400F00004FF0FF32044BDA627047034B9A6AD268D2685268DA6270479C01002010B50446006BFFF77BFC2046FFF778FC10BD00BF2DE9F04781460D4617469A46089EDDF86D
:400F400024800A9C9200A521206B01F06CFA236B07F18042013A03EB820727F0070745B90EE0E95CE21882F83410EA5C22B1013300E000230B2BF4D9002384F83F3002E0A2
:400F8000002384F83430042E00D90426E662266400256564201DFFF74FFC04F11800FFF74BFC2461C6F10506A6616462A56484F84C50524649463846FFF79CFC2060B8F1E0
:400FC000000F01D0C8F80040BDE8F08770B5002407E004EB8402930010481844FFF720FC0134042CF5D90E4C04F194063046FFF717FC04F1A8052846FFF712FC04F114003F
:40100000FFF70EFC04F1BC00FFF70AFC2046FFF707FCA662C4F8D05070BD00BFCC0100209C01002038B50546FFF78CFC264BD3F8D4200132C3F8D420D3F8D8304BB9224B1E
:40104000C3F8D850D3F8D430012B10D1FFF7BEFF0DE01D4BD3F8DC304BB91B4BD3F8D830DA6AEB6A9A4202D8174BC3F8D850164CD4F8E0300133C4F8E030EB6A012202FA4F
:4010800003F1D4F8E4200A43C4F8E42004F1300003EB83039A00291D1044FFF7D1FBFFF761FCD4F8DC306BB1D4F8D830DA6AEB6A9A4207D24FF08052044B1A60BFF34F8FFD
:4010C000BFF36F8F38BD00BF9C01002004ED00E038B517E0FFF736FC0D4CD4F8C830DD68281DFFF7D3FBD4F8D430013BC4F8D430D4F8E830013BC4F8E830FFF733FC284634
:40110000FFF70CFF024BD3F8E830002BE2D138BD9C01002008B5FFF7DBFFFCE770B504460E461E4BD3F8EC50D3F8D8000430FFF7ADFB60B9194BD3F8D820D16A012202FA3C
:4011400001F1D3F8E42022EA0102C3F8E420B4F1FF3F07D136B11148D0F8D8100431FFF76FFB70BD2C440D4BD3F8D8305C60A54208D90A4BD3F8D000D3F8D8100431FFF786
:401180006BFB70BD054DA86AD5F8D8100431FFF763FBEB6A9C4200D2EC6270BD9C0100202DE9F04385B006460F46154698469000FFF702FB60B181465020FFF7FDFA044663
:4011C00010B1C0F8309004E04846FFF727FB00E000248CB10023039302940D9B01930C9B009343462A4639463046FFF7A1FE2046FFF718FF012001E04FF0FF3005B0BDE866
:40120000F08300BF00B583B0104B01930023009364220F490F48FFF7C3FF012813D14FF0A00383F31188BFF36F8FBFF34F8F0A4B4FF0FF32DA620122C3F8DC200022C3F80C
:40124000EC20FFF7E7FB03B05DF804FB900200206C240000151100009C010020034AD2F8F0300133C2F8F030704700BF9C0100202DE9F0413D4BD3F8F030002B68D13B4B42
:40128000D3F8EC700137C3F8EC7067B99A6AD3F8D0109962C3F8D020D3F8F8200132C3F8F820FFF729FE314BDB6A9F4205D24FF000083BE04FF0010801E04FF000082B4B7C
:4012C0009B6A1B6823B94FF0FF32284BDA622DE0264B9B6ADB68DC6863689F4202D2234AD36223E0261D3046FFF7D0FAA36A1BB104F11800FFF7CAFAE36A012202FA03F1C3
:401300001A4DD5F8E4200A43C5F8E42005F1300003EB83039A0031461044FFF791FAE26AD5F8D830DB6A9A42C4D2C8E70F49D1F8D830DB6A03EB83039A000A44136B012BEC
:4013400001D94FF00108094BD3F8FC304BB90AE0064AD2F800310133C2F800314FF0000801E04FF001084046BDE8F0819C01002070B5FFF7E7FA324BD3F8F020013AC3F895
:40138000F020D3F8F030002B53D12D4BD3F8D43043BB002450E02A4C236ADD6805F11800FFF774FA2E1D3046FFF770FAEB6A012202FA03F1D4F8E4200A43C4F8E42004F135
:4013C000300003EB83039A0031461044FFF738FAEA6AD4F8D830DB6A9A4204D30122C4F8FC2000E00025164B5B69002BD3D10DB1FFF782FD124BD3F8004164B1FFF738FFCA
:4014000018B101220E4BC3F8FC20013CF6D100220B4BC3F800210A4BD3F8FC305BB14FF08052084B1A60BFF34F8FBFF36F8F012402E0002400E00024FFF794FA204670BD7C
:401440009C01002004ED00E0284BD3F8F03023B10122264BC3F8FC20704710B5234B0022C3F8FC20D3F8D8301B6B1A68B2F1A53F0BD15A68B2F1A53F07D19A68B2F1A53F76
:4014800003D1DB68B3F1A53F07D0184BD3F8D800D3F8D8103431FEF785FE144AD2F8E430B3FA83F3DBB2C3F11F039800C418A10011444C6B64684C6302F1300118448200C0
:4014C00008320A44944206D1606803EB83018A0006490A445063054903EB83039A000A44536BDB68C1F8D83010BD00BF9C01002010B50C46054BD3F8D8101831FFF7ACF9F0
:4015000001212046FFF70AFE10BD00BF9C01002038B5C368DC6804F118052846FFF7B6F9164BD3F8F030B3B9251D2846FFF7AEF9E36A012202FA03F11048D0F8E4200A4385
:40154000C0F8E420303003EB83039A0029461044FFF776F903E029460948FFF771F9E26A064BD3F8D830DB6A9A4204D90120034BC3F8FC0038BD002038BD00BF9C010020FC
:40158000B0010020034BD3F8F8200260D3F8EC30436070479C010020F8B504460D46FFF7D1F9124BD3F8EC106268881A2B68B3F1FF3F14D027680D4ED6F8F860B74201D0FC
:4015C00091420ED2984206D21B1A2B602046FFF7D9FF002406E000232B60012402E0002400E00124FFF7BEF92046F8BD9C0100200122024BC3F8FC20704700BF9C010020AB
:40160000002852D038B50346C26A2A49D1F8D810C96A8A4240D28169002906DB2549D1F8D810C96AC1F105018161586902EB82029100214A1144884227D11C461D1D28469A
:40164000FFF724F950B9E26A012303FA02F21949D1F8E43023EA0203C1F8E4301548D0F8D830DB6AE362012404FA03F1D0F8E4200A43C0F8E420303003EB83039A0029464F
:401680001044FFF7DDF8204638BD0A4AD2F8D820D26ADA62012038BD026C064BD3F8D830DB6A9A4203D3002038BD00207047012038BD00BF9C010020CC010020002838D0E8
:4016C00038B50346426C013A4264C06A196C884231D092BB1C461D1D2846FFF7D7F880B9E26A02EB82018B0015490B441B6B43B9012303FA02F2D1F8E43023EA0202C1F824
:40170000E420236CE362C3F10502A261012404FA03F10B48D0F8E4200A43C0F8E420303003EB83039A0029461044FFF789F8204638BD00207047002038BD002038BD00BF11
:401740009C01002000283ED038B50346026C8A4200D20A46D96A8A4234D0586C012831D1DA629869002802DBC2F105029A61586901EB81018A0014490A44904222D11C4660
:401780001D1D2846FFF782F850B9E26A012303FA02F20E49D1F8E43023EA0203C1F8E430E36A012202FA03F10848D0F8E4200A43C0F8E420303003EB83039A0029461044DE
:4017C000FFF73EF838BD7047CC0100209C010020064BD3F8D8302BB1044BD3F8D820536C01335364014BD3F8D80070479C010020FEE700BFF0B40022174611E050F82760C1
:40180000F3B226F0FF0608E001EB420511F812406D78A5550132013BDBB2002BF4D10137152FEBD9F0BC7047064B1B78DBB203F00701054A11701B09013213704422034B3A
:401840001A707047CF0100496E5800407658004008B50A46002100F0E6FD08BD38B50024264B1C80582202331A70192502331D80182202331A70022203F27A231A7008226A
:401880004FF040231A70032103F5007319701C4B1B78DBB21B490B701B4B1A8041F25122023B1A800CE0194B1B7803F0010343EA440404F003044FF4F07000F06DFD013D7C
:4018C0000DB1032CEFD115B90320FFF791FF104B4FF480721A8007221A7000220D490A704820023108701A700222033B1A700A4A137843F00303137038BD00BF804000401D
:4019000008010049A146004022420040254200400440004006400040A243004008B500F077FD08BD38B572B600240CE0344D630019194A0011462A44084691882858FFF7A7
:4019400087FF0134E4B2072CF0D900240BE02C48A20011194B0003441A8F596B186BFFF7DDFF0134E4B2012CF1D926494FF09040FFF740FF244A137843F00203137010320C
:40198000137843F002031370204C237843F040032370A2F58632513A137843F01003137008221B491B48FFF7B9FF0A221A491B48FFF7B4FF08221A491A48FFF7AFFF0822AC
:4019C00019491A48FFF7AAFF0A2219491948FFF7A5FF194A137843F008031370174D61232B70FFF73BFF81232B700122144B1A70FFF71AFF0E2221461248FFF78FFF38BDD5
:401A0000742400005800004803500140A0430040E405004802510040EC050048C0510040F8050048125100400006004822510040080600483051004022430040004800403C
:401A400004000840B043004008B500F0B5FC03680C2B00D1FEE7FEE708B5104E104D16E029686B68AC68002204E051F8040B43F8040B0432A242F8D1E868002203E0002165
:401A800043F8041B04328242F9D11035013E002EE6D100F097FCFEF73DFBFEE7010000004026000008B5104A104B1A60104A136843F40073136000230AE0032B03D80D4A58
:401AC00052F8231000E00C490C4A42F8231001332F2BF2D90A4B1A780A4B1A70074A0A4B1A60FFF71FFF08BD0004FA050CED00E014ED00E000000000491A00000080FF1F9B
:401B0000BC760040C080FF1F08ED00E07222084B1A70202201331A700622623B1A70472210331A70002203F5A9731A70704700BF8964004010B500F037FC04460A4A137896
:401B400043F0200313700132137843F01003137002F58072137843F01003137000F014F8204600F025FC10BD9964004008B5054B1B7823B9FFF7CAFF0122024B1A70FFF720
:401B8000D9FF08BDA0020020054A137843F0020313701032137843F002031370704700BFA243004001BE704710B5044605E0084B186800F0F1FBA4F50044B4F5004FF6D852
:401BC000034B586800FB04F000F0E6FB10BD00BFD080FF1F70B504460E46074B1D681F2802D90020FFF7DEFF04F01F04103455F8240045F8246070BD08ED00E038B50446A8
:401C00000D46072902D90020FFF7CCFF1F2C02D90020FFF7C7FF04F01F0000F1604000F564406D01EDB2057038BD00BF08B5134A136823F0010313604FF4F05300E0013B2F
:401C400023B10E4A126812F0010FF8D19BB14FF480320B4B1A6000F0A7FB0A4A137803F0FE0313701032137803F0FE03137000F09FFB002008BD012008BD00BF10A00040A2
:401C800080E100E0A6430040064B1A7842F001021A701B7813F0010F01D1012070470020704700BF04A0004008B500F07DFB154A137843F0010313701032137843F0010381
:401CC000137000F075FB41F601220F4B1A60FFF7DBFF4FF480320D4B1A600D4A136843F0010313604FF4107300E0013B23B1084A126812F0010FF8D00BB9012008BD00209A
:401D000008BD00BFA643004000A0004000E100E010A00040064B1A7802F0FE021A701B7813F0010F01D0012070470020704700BF04A0004010F4004F07D1064B18801B8886
:401D40009BB2984203D001207047022070470020704700BF16A0004050B90D4B5A7802F0EF025A705B7813F0100F0CD001207047074B5A7842F010025A705B7813F0100F7C
:401D800003D101207047002070470020704700BF14A0004030B4841EE4B20D2C28D88C1EE4B2052C02D92BBB012925D1032A25D8904225D3914225D3164D6C7804F0F00481
:401DC000204368706C78E4B2A0421DD10BB9002000E002204B01DBB29200D2B2134303430C4A13701278D2B293420FD001200EE002200CE002200AE0022008E0022006E017
:401E0000022004E0022002E0012000E0002030BC704700BF14A0004050B90D4B1A7802F0EF021A701B7813F0100F0CD001207047074B1A7842F010021A701B7813F0100FF1
:401E400003D101207047002070470020704700BF14A0004050B90D4B1A7802F0FE021A701B7813F0010F0CD001207047074B1A7842F001021A701B7813F0010F03D101204E
:401E80007047002070470020704700BF14A00040044B18801B889BB2984201D0012070470020704704A0004003785B01214A416841F08011995003785B0199189A5802F0F3
:401EC0007F12436823F080139A4228D183680B610278184B03EB421319698268914220D1C2685A610278134B03EB42135969C268914218D14FF0FF329A6102780D4B03EBB1
:401F000042139A69B2F1FF3F0FD10022DA610278084B03EB4213DB694BB101207047012070470120704701207047012070470020704700BFA0A0004001780901114A436804
:401F400043F4000343F008038B5003781B0199189B580D4A1A40436823F4000323F008039A420BD183684B600278064B03EB02135A6883689A4203D0012070470120704717
:401F80000020704720A00040F7007F0038B5002409E004EB440293000E481844FFF7CCFF28B90134E4B2072CF3D9002500E001254DB10DE0084800EB0410FFF775FF30B93C
:401FC0000134E4B200E000240F2CF3D900E00125284638BDB82400001825000008B500F0E3F9324A137843F0010313701032137843F00103137000F0DBF92D4A137803F0FF
:40200000FE0313704FF4F05300E0013B23B1284A127812F0010FF8D1002B3CD04FF48032244B1A6024491020FFF7D4FD07211020FFF7E4FD0220FFF77DFE88B9FFF78CFED3
:4020400080B90023032204210920FFF7A3FE58B9FFF7E2FE50B9FFF7FDFE48B1012308E0012306E0012304E0012302E0012300E0002393B9FFF78AFF88B941F60120FFF77B
:4020800007FF70B90A4B00221A701B7813F0010F09D0012008BD012008BD012008BD012008BD012008BD002008BD00BFA643004010A0004080E100E04921000008B5074B7C
:4020C0001B7813B9FFF78AFF00E0002020B90122024B1A70FFF7E8FD08BD00BFA202002008B50222034B5A70FFF714FEFFF79EFD08BD00BF00A000400822014B5A7070471F
:4021000000A0004038B510220C4B5A700125002410E00B4B1B881D4208D06301094A9B5C13F0200F02D0204600F050F86D00ADB20134E4B20F2CECD938BD00BF00A000409A
:4021400008A00040A0A0004008B5144B5B7813F0020F01D0FFF7C4FF104B5B7813F0080F01D0FFF7C9FF00220D4B1A600B4B5B7813F0100F06D0FFF7C5FF0949094B18689E
:40218000FEF7F4FD064B1B683BB14FF08052064B1A60BFF34F8FBFF36F8F08BD00A00040A40200206481FF1F04ED00E0064B1B7813F0010F06D1044A136843F001031360DD
:4021C000002070470120704720A0004070B440010F4E8519835D13F0010F17D0AC7804F00F0400230CE0032B02D9C3F10B0201E0C3F103022A44117A064A11700133DBB2CD
:40220000A342F0D3835D43F00103835570BC7047A0A00040AC020020044A137803F0BF03800100F040001843107070470051004008B500F0B9F80A4A137843F0200313705E
:4022400002F58072137843F010031370A2F20312137843F01003137000F0AAF808BD00BF9B640040014B1878704700BF6B650040014B1878704700BF68640040034B1B782E
:4022800013F0040FFAD0024B187070476B6500404B64004070B506460C46002506E0705DFFF7ECFF0135EDB2013CE4B2002CF6D170BD00BF08B501E00A4B1B780A4B1B7842
:4022C00013F0200FF8D100F06FF8084B1A7842F001021A701A7802F0FE021A7000F068F808BD00BF5B640040686400409B64004008B50F22074B1A70FFF7DCFFFFF7B2FF7A
:40230000FFF7B6FF0023044A1370A2F20312137008BD00BF8B6400408B65004008B5054B1B7823B9FFF7E4FF0122024B1A70FFF77FFF08BDA8020020044A137803F0EF03DF
:40234000000100F0100018431070704730510040044A137803F0F703C00000F00800184310707047C0510040044A137803F07F03C001C0B218431070704700BF0051004045
:40238000044A137803F0FE0300F0010018431070704700BF205100400230800803D000BF01380046FCD17047EFF3108072B6704780F31088704700BF014B1868704700BFFA
:4023C0004081FF1F0E4B70B51E460E4C0025E41AA410A54204D056F8253098470135F8E700F01CF9084B094C1E46E41AA4100025A54204D056F8253098470135F8E770BD32
:402400002826000028260000282600003026000010B5431E0A44914204D011F8014B03F8014FF8E710BD03460244934202D003F8011BFAE770470000000000005265637680
:402440006420446174613A200000000043414E5F52785F74736B000043414E5F52656D6F74655F54785F74736B00000049444C4500000000405100403000F051004010002F
:4024800000000140800A000B0140000500140140000800400140000A004C01400002005001402000605200405C0500480600800A0140640500488000000000000000220019
:4024C0000000C08A010000000000080000002064020000000800880000000000030000000800880000000000040000000800880000000000050000000800880000000000B7
:4025000006000000080088000000000007000000080088000000000000000000A8008000FFFFFFFF0000000001000000000000000000000000000000020000000000000047
:402540000000000000000000030000000000000000000000000000000400000000000000000000000000000005000000000000000000000000000000060000000000000049
:4025800000000000000000000700000000000000000000000000000008000000000000000000000000000000090000000000000000000000000000000A00000000000000F9
:4025C00000000000000000000B0000000000000000000000000000000C0000000000000000000000000000000D0000000000000000000000000000000E00000000000000A9
:4026000000000000000000000F00000000000000000000000000000043000000F8B500BFF8BC08BC9E4670474D000000A51A0000F8B500BFF8BC08BC9E4670472900000015
:4026400050260000C880FF1F80000000F085000000000000AAAAAAAA0000E02EC05D00001800000000366E01000000000000000000000000000000000000000000000000F9
:4026800000000000000000001826000000000000000000000000000000000000000000000000000000000000000000000000000000000000000000000000000000000000DC
:4026C0000000000000000000E080FF1F000000000000000000000000000000000000000000000000000000000000000000000000000000000000000000000000000000005C
:402700000000000000000000000000000000000000000000000000000000000000000000000000000000000000000000000000000000000000000000000000000000000099
:402740000000000000000000000000000000000000000000000000000000000000000000000000000000000000000000000000000000000000000000000000000000000059
:402780000000000000000000000000000000000000000000000000000000000000000000000000000000000000000000000000000000000000000000000000000000000019
:4027C00000000000000000000000000000000000000000000000000000000000000000000000000000000000000000000000000000000000000000000000000000000000D9
:020000040003F7
:0200000480007A
:400000000352004003640040016500400205014004060140020701405308014048090140100A0140390B0140020D0140031501405D180140531901404E1A0140531B01408F
:4000400002440140024501400B490140104C0140154D01400450014008CC0956180289728A388B0F8A0F8680E408B980BF40D904DF012280A68005D90D110F2211D81301F1
:4000800015241749192E1B811D201FD021D92508270429D12B082DD9330F37F03B8C4002460449FF4A074BFF4C404D204EF04F055008544059045A045B045D015F01604085
:4000C00061A8624063208110841986068703880E89088A118C1F8F2091079318940F95189610991C9A119B029C049F20A304A402A504A806A91CAB01AD1FB008B31FB416A8
:40010000B607B720BA20BB08BE01BF40D602D713D804D904DB04DC11DD10DF010008012002100302081009880A20100813081510160819611A0821082301268827102860DD
:4001400029202B022D802E092F083009314032103684371138A039083A023C403E0447204F085640590164026620671069846B04701C718072027308904092059314960A66
:400180009701980299809A289B039E019F10A204A309A404A508A608A702C007C207C406CAFFCCFFCE5FD020D601D87004010A020C0116011A012E023201340238083E10A7
:4001C000541858045B045C015D105F01001803020408059009080A080D020E220F1812011504171118141C401D321E082422261227022D802E02355036093D223E444002AB
:4002000042024420452349404A024C014E084F06562A57045A026004630165406C046D246E476F09758084209420C0E7C2D6C471CA90CCF0CEF0D0E0D230D601D81C942049
:40024000B410E004E210EA04010104C00C7A0E85160618B51A481E08281C2A233010320E34E03501360138203E413F104063410246EC470B481C49FF4AFF4BFF4EF04F4474
:40028000500C580459045A045D015F0166C06A406B028530890F8B408D0A8F80910F93309530970F9B0F9D3FA120A401A505A780A93CAB03AD10B103B401B53CB7C0BA02AA
:4002C000BB20BE10BF40C063C104C205C401C60CC7E0C824C9FFCAFFCBFFCC62CDA0CEF0CF41D00CD804D904DA04DB04DC11DD01DF01E640E702E910EA30EB10ED10EE10A4
:40030000EF1204440BC00E280F0210201410150817101A881B021C041E201F41200922012510282029A02A0230113108324038183A803E014001410443024618480449405C
:400340004C085040520154205540560462106308681069016A206B017001712072107301800181108450851086908901904891949304948095089602980199609A429B1E17
:400380009C709E019F20A108A204A305A404A702B001B210C0A0C2E0C444CA0FCC0FCE8ED06BD22CE009E40C000A02140420050B06C008E009020B010C800D080E201215DD
:4003C0001413150B160418131A0C1C031E1424E0250127062A082C402E2032E03308340F3503361037043A203E405401580459045B045C115D105F0180108240830885206D
:400400008743880C8A718CDC8E22918C9313941096AC9A209B0C9E03A409A5D1A6D0A70EA814A9D1AB06B3C0B4E0B530B61FB70FB928BA20BB80BF04D409D804D904DB04B6
:40044000DC11DF01008001080280030404010648070109C20B280C080E010F08116416041708181019A81E011F1021142240251026A0272928202C082D202E082F14304091
:40048000324033043620370139A43C013E043F08581159805A085D105F4667028431858089028A048C208D409194920893469410952896019A449B069C609E089F20A06087
:4004C000A140A304A408A804AA10AD20B301B580B610B709C0DFC2EFC467CA62CCA2CECED6FFD810E004E210E8097B02DC01B702EC0203105208571083108F10A208AA088E
:40050000C010D460E020EA2052105301562057025A015C08620266048008838087038A20D407D607D803E40112801B0877807B4183408E808F089B80A301AA04AE01B210B6
:40054000B602B701C408C608DC01DE06E20AE802EC0C00030C0310031C03000080A00000400000000023000C50D0220001D07400720000D063D00C000021001A2203003473
:400580007202001D22005080720000002300580000D00000601F00201F80004020080002000000502604500003BEF0DC3BFFFFFF2200F00C04000000000002200404040470
:4005C000000000010000C00040011011C0010011400140010000000000000000000000000000000000C0C000000000008C0040BCBC00B0000000000000FFFF00FF00000013
:4006000000010100000000001000013A3A000A0000000000000000000000000000000000000000000000000000000000000000000000000000000000000000000000000029
:40064000000000000000000000000000000000000000000000000000000000000000000000000000000000000000000000000000000000000000000000000000000000007A
:40068000000000000000000000000000000000000000000000000000000000000000000000000000000000000000000000000000000000000000000000000000000000003A
:4006C00000000000000000000000000000000000000000000000000000000000000000000000000000000000000000000000000000000000000000000000000000000000FA
:4007000000000000000000000000000000000000000000000000000000000000000000000000000000000000000000000000000000000000000000000000000000000000B9
:0200000490006A
:0400000000004007B5
:0200000490105A
:04000000BC90ACAF55
:0200000490303A
:02000000FB50B3
:0200000490402A
:4000000000000000000000000000000000000000000000000000000000000000000000000000000000000000000000000000000000000000000000000000000000000000C0
:400040000000000000000000000000000000000000000000000000000000000000000000000000000000000000000000000000000000000000000000000000000000000080
:400080000000000000000000000000000000000000000000000000000000000000000000000000000000000000000000000000000000000000000000000000000000000040
:4000C0000000000000000000000000000000000000000000000000000000000000000000000000000000000000000000000000000000000000000000000000000000000000
:0200000490501A
:0C00000000012E16106900012E270BB91C
:00000001FF