:4000000000800020110000009D0D00009D0D000008B5044B1A6803F53F5302331A6000F0C5FE00BFFA46004010B5054C237833B9044B13B10448AFF300800123237010BD60
:400040003881FF1F0000000070160000084B10B51BB108490848AFF300800848036803B910BD074B002BFBD0BDE81040184700BF000000003C81FF1F70160000C880FF1F16
:4000800000000000034B044ADA62044A9A63044ADA6370470080FF1FE1020000410300008503000000B583B0FFF7ECFF62B601F027F901F095F900F001FF032200210120C6
:4000C00000F0E8F9084B43F8040B019302230093002364220549064800F048FB00F078FB002003B05DF804FB5481FF1F74160000350100004FF0A00383F31188BFF36F8FF0
:40010000BFF34F8FFEE700BF4FF0A00383F31188BFF36F8FBFF34F8FFEE700BF10B4002303E0CC5CC4540133DBB29342F9D310BC704700BF00B587B040F2231303930023FB
:400140008DF810308DF8113002238DF8123001238DF8133001AB05930022694601A8FFF7DDFF03A801F0A8F94FF47A7000F052FCF2E700BF38B5044610F0070F02D020F01D
:400180000704083400F050FB114B1B682BB9104A02F10C0323F0070313600E4BD3F83C391C4447F6F772944208D8A34208D2084A15681D44074BC3F83C4902E0002500E051
:4001C000002500F0BBFB0DB9FFF79EFF284638BD6C81FF1F34F8FF1F704700BF00F1080343604FF0FF328260C360036100230360704700BF00230361704700BF43684B60E6
:400200009A688A609A68516099600861036801330360704730B40D68B5F1FF3F01D1026907E000F1080200E01A4653681C68A542FAD253684B6099608A60516008610368A8
:400240000133036030BC704703694268816891608268416851605A68904201D182685A60002202611A68013A1A601868704700BF82B0002301934FF0A00383F31188BFF3C8
:400280006F8FBFF34F8F019B002BFCD002B0704706480068006880F3088862B661B6BFF34F8FBFF36F8F00DF00BF000008ED00E04FF0807340F8043C21F0010140F8081C98
:4002C000034B40F80C3C40F8202C4038704700BF71020000000000000000000000000000074B19680868B0E8F00F80F30988BFF36F8F4FF0000080F311884EF00D0E704762
:400300004C0200204FF0A00383F31188BFF36F8FBFF34F8F024A136801331360704700BFCC80FF1F034A1368013B13600BB983F311887047CC80FF1F000000000000000065
:40034000EFF30980BFF36F8F0D4B1A6820E9F00F10602DE908404FF0A00080F3118800F073FB4FF0000080F31188BDE8084019680868B0E8F00F80F30988BFF36F8F70473E
:400380004C02002008B54FF0A00383F31188BFF36F8FBFF34F8F00F051FA18B14FF08052024B1A60002383F3118808BD04ED00E0054B00221A6005490A6045F6BF51044A00
:4003C000116007221A60704710E000E018E000E014E000E010B50B4B1A6842F460021A601A6842F060421A60FFF7E2FF0024064B1C60FFF74DFF00F027FBFFF739FF204687
:4004000010BD00BF20ED00E0CC80FF1F38B504460D46FFF777FF2168E26B236C03FB0210A0600020A0636160013A02FB0313E360FF2384F8443084F845307DB92369ABB1D8
:4004400004F1100000F054FB80B14FF08052094B1A60BFF34F8FBFF36F8F07E004F11000FFF7BCFE04F12400FFF7B8FEFFF75AFF012038BD04ED00E010B5029B0C4609B9DB
:400480001B6000E01A60D8631C6401211846FFF7BDFF10BDF0B583B005460E46174601FB00F04830FFF766FE044638B100903B4600F1480231462846FFF7DEFF204603B0CB
:4004C000F0BD00BF074B9B6A1B6823B94FF0FF32044BDA627047034B9A6AD268D2685268DA6270477401002010B50446006BFFF773FE2046FFF770FE10BD00BF2DE9F0479C
:4005000081460D4617469A46089EDDF824800A9C9200A521206B01F0A2F8236B07F18042013A03EB820727F0070745B90EE0E95CE21882F83410EA5C22B1013300E00023D9
:400540000B2BF4D9002384F83F3002E0002384F83430042E00D90426E662266400256564201DFFF747FE04F11800FFF743FE2461C6F10506A6616462A56484F84C50524607
:4005800049463846FFF794FE2060B8F1000F01D0C8F80040BDE8F08770B5002407E004EB8402930010481844FFF718FE0134042CF5D90E4C04F194063046FFF70FFE04F1FF
:4005C000A8052846FFF70AFE04F11400FFF706FE04F1BC00FFF702FE2046FFF7FFFDA662C4F8D05070BD00BFA40100207401002038B50546FFF786FE264BD3F8D4200132A1
:40060000C3F8D420D3F8D8304BB9224BC3F8D850D3F8D430012B10D1FFF7BEFF0DE01D4BD3F8DC304BB91B4BD3F8D830DA6AEB6A9A4202D8174BC3F8D850164CD4F8E0301A
:400640000133C4F8E030EB6A012202FA03F1D4F8E4200A43C4F8E42004F1300003EB83039A00291D1044FFF7C9FDFFF75BFED4F8DC306BB1D4F8D830DA6AEB6A9A4207D247
:400680004FF08052044B1A60BFF34F8FBFF36F8F38BD00BF7401002004ED00E038B517E0FFF730FE0D4CD4F8C830DD68281DFFF7CBFDD4F8D430013BC4F8D430D4F8E830E9
:4006C000013BC4F8E830FFF72DFE2846FFF70CFF024BD3F8E830002BE2D138BD7401002008B5FFF7DBFFFCE770B504460E461E4BD3F8EC50D3F8D8000430FFF7A5FD60B997
:40070000194BD3F8D820D16A012202FA01F1D3F8E42022EA0102C3F8E420B4F1FF3F07D136B11148D0F8D8100431FFF767FD70BD2C440D4BD3F8D8305C60A54208D90A4BCE
:40074000D3F8D000D3F8D8100431FFF763FD70BD054DA86AD5F8D8100431FFF75BFDEB6A9C4200D2EC6270BD740100202DE9F04385B006460F46154698469000FFF7FAFCEE
:4007800060B181465020FFF7F5FC044610B1C0F8309004E04846FFF71FFD00E000248CB10023039302940D9B01930C9B009343462A4639463046FFF7A1FE2046FFF718FF07
:4007C000012001E04FF0FF3005B0BDE8F08300BF00B583B0104B01930023009364220F490F48FFF7C3FF012813D14FF0A00383F31188BFF36F8FBFF34F8F0A4B4FF0FF3280
:40080000DA620122C3F8DC200022C3F8EC20FFF7E1FD03B05DF804FB6802002080160000E106000074010020034AD2F8F0300133C2F8F030704700BF740100202DE9F041AB
:400840003D4BD3F8F030002B68D13B4BD3F8EC700137C3F8EC7067B99A6AD3F8D0109962C3F8D020D3F8F8200132C3F8F820FFF729FE314BDB6A9F4205D24FF000083BE04F
:400880004FF0010801E04FF000082B4B9B6A1B6823B94FF0FF32284BDA622DE0264B9B6ADB68DC6863689F4202D2234AD36223E0261D3046FFF7C8FCA36A1BB104F1180047
:4008C000FFF7C2FCE36A012202FA03F11A4DD5F8E4200A43C5F8E42005F1300003EB83039A0031461044FFF789FCE26AD5F8D830DB6A9A42C4D2C8E70F49D1F8D830DB6A2F
:4009000003EB83039A000A44136B012B01D94FF00108094BD3F8FC304BB90AE0064AD2F800310133C2F800314FF0000801E04FF001084046BDE8F0817401002070B5FFF730
:40094000E1FC324BD3F8F020013AC3F8F020D3F8F030002B53D12D4BD3F8D43043BB002450E02A4C236ADD6805F11800FFF76CFC2E1D3046FFF768FCEB6A012202FA03F132
:40098000D4F8E4200A43C4F8E42004F1300003EB83039A0031461044FFF730FCEA6AD4F8D830DB6A9A4204D30122C4F8FC2000E00025164B5B69002BD3D10DB1FFF782FDF3
:4009C000124BD3F8004164B1FFF738FF18B101220E4BC3F8FC20013CF6D100220B4BC3F800210A4BD3F8FC305BB14FF08052084B1A60BFF34F8FBFF36F8F012402E0002437
:400A000000E00024FFF78EFC204670BD7401002004ED00E010B548B10446FFF705FF00212046FFF761FEFFF789FF00E0002038B94FF08052034B1A60BFF34F8FBFF36F8FD3
:400A400010BD00BF04ED00E0284BD3F8F03023B10122264BC3F8FC20704710B5234B0022C3F8FC20D3F8D8301B6B1A68B2F1A53F0BD15A68B2F1A53F07D19A68B2F1A53FB1
:400A800003D1DB68B3F1A53F07D0184BD3F8D800D3F8D8103431FFF72DFB144AD2F8E430B3FA83F3DBB2C3F11F039800C418A10011444C6B64684C6302F130011844820024
:400AC00008320A44944206D1606803EB83018A0006490A445063054903EB83039A000A44536BDB68C1F8D83010BD00BF7401002038B5C368DC6804F118052846FFF7A4FBAF
:400B0000164BD3F8F030B3B9251D2846FFF79CFBE36A012202FA03F11048D0F8E4200A43C0F8E420303003EB83039A0029461044FFF764FB03E029460948FFF75FFBE26A6E
:400B4000064BD3F8D830DB6A9A4204D90120034BC3F8FC0038BD002038BD00BF7401002088010020FEE700BFF0B40022174611E050F82760F3B226F0FF0608E001EB4205C4
:400B800011F812406D78A5550132013BDBB2002BF4D10137082FEBD9F0BC7047064B1B78DBB203F00701054A11701B09013213704422034B1A707047CF0100496E5800404F
:400BC0007658004008B50A46002100F048FD08BD38B51925234B1D80182202331A70022203F27E231A7008224FF040231A70032103F5007319701C4B1B78DBB21B490B7078
:400C00001B4B1A8041F25122023B1A8000240CE0184B1B7803F0010343EA440404F003044FF4F07000F0D4FC013D0DB1032CEFD115B90320FFF796FF0F4B4FF480721A80D7
:400C400007221A7000220D490A704820023108701A700222033B1A70094A137843F00103137038BD8040004008010049A146004022420040254200400440004006400040EB
:400C8000A243004008B500F0DFFC08BD38B572B6334A137843F00403137000240CE0314D630019194A0011462A44084691882858FFF788FF0134E4B2072CF0D900240BE07C
:400CC0002848A20011194B0003441A8F596B186BFFF7D8FF0134E4B2012CF1D922494FF09040FFF741FF214A137843F0020313701032137843F0020313701D4C237843F087
:400D000040032370A2F58632513A137843F010031370082217491848FFF7B4FF0A2217491748FFF7AFFF082216491748FFF7AAFF164A137843F008031370154D61232B70D9
:400D4000FFF746FF81232B700122124B1A70FFF725FF0E2221461048FFF794FF38BD00BFE8460040881600002400004803500140A0430040FC020048025100400403004852
:400D8000C05100401003004812510040224300400048004004000840B043004008B500F027FC03680C2B00D1FEE7FEE708B5104E104D16E029686B68AC68002204E051F8F6
:400DC000040B43F8040B0432A242F8D1E868002203E0002143F8041B04328242F9D11035013E002EE6D100F009FCFFF75BF9FEE7010000005418000008B5104A104B1A603D
:400E0000104A136843F40073136000230AE0032B03D80D4A52F8231000E00C490C4A42F8231001332F2BF2D90A4B1A780A4B1A70074A0A4B1A60FFF729FF08BD0004FA05B9
:400E40000CED00E014ED00E0000000009D0D00000080FF1FBC760040C080FF1F08ED00E07222074B1A70202201331A7006225F3B1A70472210331A70002251331A707047F2
:400E80008865004010B500F0ABFB04460A4A137843F0200313700132137843F0100313700232137843F01003137000F015F8204600F09AFB10BD00BF9865004008B5054BDB
:400EC0001B7823B9FFF7CCFF0122024B1A70FFF7D9FF08BD78020020054A137843F0010313701032137843F001031370704700BFA243004001BE704770B504460E46074B5A
:400F00001D681F2802D90020FFF7F4FF04F01F04103455F8240045F8246070BD08ED00E038B504460D46072902D90020FFF7E2FF1F2C02D90020FFF7DDFF04F01F0000F1CA
:400F4000604000F564406D01EDB2057038BD00BF08B5134A136823F0010313604FF4F05300E0013B23B10E4A126812F0010FF8D19BB14FF480320B4B1A6000F031FB0A4A3F
:400F8000137803F0FE0313701032137803F0FE03137000F029FB002008BD012008BD00BF10A0004080E100E0A6430040064B1A7842F001021A701B7813F0010F01D10120B8
:400FC00070470020704700BF04A0004008B500F007FB154A137843F0010313701032137843F00103137000F0FFFA41F601220F4B1A60FFF7DBFF4FF480320D4B1A600D4AE1
:40100000136843F0010313604FF4107300E0013B23B1084A126812F0010FF8D00BB9012008BD002008BD00BFA643004000A0004000E100E010A00040064B1A7802F0FE0252
:401040001A701B7813F0010F01D0012070470020704700BF04A0004010F4004F07D1064B18801B889BB2984203D001207047022070470020704700BF16A0004050B90D4BCE
:401080005A7802F0EF025A705B7813F0100F0CD001207047074B5A7842F010025A705B7813F0100F03D101207047002070470020704700BF14A0004030B4841EE4B20D2C7F
:4010C00028D88C1EE4B2052C02D92BBB012925D1032A25D8904225D3914225D3164D6C7804F0F004204368706C78E4B2A0421DD10BB9002000E002204B01DBB29200D2B256
:40110000134303430C4A13701278D2B293420FD001200EE002200CE002200AE0022008E0022006E0022004E0022002E0012000E0002030BC704700BF14A0004050B90D4B5B
:401140001A7802F0EF021A701B7813F0100F0CD001207047074B1A7842F010021A701B7813F0100F03D101207047002070470020704700BF14A0004050B90D4B1A7802F0AE
:40118000FE021A701B7813F0010F0CD001207047074B1A7842F001021A701B7813F0010F03D101207047002070470020704700BF14A00040044B18801B889BB2984201D073
:4011C000012070470020704704A0004003785B01214A416841F08011995003785B0199189A5802F07F12436823F080139A4228D183680B610278184B03EB421319698268C0
:40120000914220D1C2685A610278134B03EB42135969C268914218D14FF0FF329A6102780D4B03EB42139A69B2F1FF3F0FD10022DA610278084B03EB4213DB694BB1012030
:401240007047012070470120704701207047012070470020704700BFA0A0004001780901114A436843F4000343F008038B5003781B0199189B580D4A1A40436823F40003B4
:4012800023F008039A420BD183684B600278064B03EB02135A6883689A4203D001207047012070470020704720A00040F7007F0038B5002409E004EB440293000E48184427
:4012C000FFF7CCFF28B90134E4B2072CF3D9002500E001254DB10DE0084800EB0410FFF775FF30B90134E4B200E000240F2CF3D900E00125284638BDCC1600002C17000066
:4013000008B500F06DF9324A137843F0010313701032137843F00103137000F065F92D4A137803F0FE0313704FF4F05300E0013B23B1284A127812F0010FF8D1002B3CD007
:401340004FF48032244B1A6024491020FFF7D4FD07211020FFF7E4FD0220FFF77DFE88B9FFF78CFE80B90023032204210920FFF7A3FE58B9FFF7E2FE50B9FFF7FDFE48B168
:40138000012308E0012306E0012304E0012302E0012300E0002393B9FFF78AFF88B941F60120FFF707FF70B90A4B00221A701B7813F0010F09D0012008BD012008BD0120EC
:4013C00008BD012008BD012008BD002008BD00BFA643004010A0004080E100E08514000008B5074B1B7813B9FFF78AFF00E0002020B90122024B1A70FFF7E8FD08BD00BFA6
:401400007A02002008B50222034B5A70FFF714FEFFF79EFD08BD00BF00A000400822014B5A70704700A0004038B51022124B5A70012500241DE0114B1B881D4215D063010F
:401440000F4A9B5C13F0200F0FD015F0030F09D014B1012C03D008E000F0AAF805E000F0AFF802E0204600F095F86D00ADB20134E4B20F2CDFD938BD00A0004008A0004054
:40148000A0A0004008B50B4B5B7813F0020F01D0FFF7B8FF074B5B7813F0080F01D0FFF7BDFF044B5B7813F0100F01D0FFF7BCFF08BD00BF00A00040F0B5012100265DE01E
:4014C00017F0030F4DD12F4B9B783B4249D103790BB14FF40013417931B92B4901EB0211046864054C6007E043F48013264901EB02110468E4004C6090F806E0BEF1070F1D
:4015000002D843EA0E4E01E043F4002EC3790BB14EF0040E00230FE01B4901EB0214032B02D9C3F10B0101E0C3F103018568ED5C21440D720133DBB281798B4201D2072B39
:40154000EAD94FF48034114B1C6011010E4D4EF4000343F008034B5101234B510C4B1C6000217B00DFB231B10132D2B201E001270022072AA4D919B10136F6B2022EF6D973
:401580000846F0BD08A0004020A0004080E100E000E100E04001054BC25C12F0010F03D0C25C42F00102C254704700BFA0A00040024A137843F0010313707047A0A000408B
:4015C000024A137843F0010313707047C0A000400230800803D000BF01380046FCD17047EFF3108072B6704780F31088704700BF014B1868704700BF3081FF1F0E4B70B553
:401600001E460E4C0025E41AA410A54204D056F8253098470135F8E700F00AF9084B094C1E46E41AA4100025A54204D056F8253098470135F8E770BD3C1800003C180000C6
:401640003C1800004418000010B5431E0A44914204D011F8014B03F8014FF8E710BD03460244934202D003F8011BFAE7704700000000000043414E5F54785F74736B0000C0
:4016800049444C4500000000205100405000F0510040100000000140001000140140000480180140800300400140000A004C014000020050014020006052004074020048F9
:4016C0000600001801407C02004880000000000000000800000060240100000000000200000060240200000008008800000000000300000008008800000000000400000009
:4017000008008800000000000500000008008800000000000600000008008800000000000700000008008800000000000000000038000000F9FF1F000200C08A01000000BB
:4017400028000000F9FF1F00000020640200000000000000000000000000000003000000000000000000000000000000040000000000000000000000000000000500000098
:40178000000000000000000000000000060000000000000000000000000000000700000000000000000000000000000008000000000000000000000000000000090000000B
:4017C0000000000000000000000000000A0000000000000000000000000000000B0000000000000000000000000000000C0000000000000000000000000000000D000000BB
:401800000000000000000000000000000E0000000000000000000000000000000F00000000000000000000000000000043000000F8B500BFF8BC08BC9E4670474D0000007C
:40184000F90D0000F8B500BFF8BC08BC9E4670472900000068180000C880FF1F70000000488100000000000000000000AAAAAAAA00000000000000000000000000000000F3
:40188000000000000000000000000000000000002C1800000000000000000000000000000000000000000000000000000000000000000000000000000000000000000000E4
:4018C00000000000000000000000000000000000D080FF1F00000000000000000000000000000000000000000000000000000000000000000000000000000000000000007A
:4019000000000000000000000000000000000000000000000000000000000000000000000000000000000000000000000000000000000000000000000000000000000000A7
:401940000000000000000000000000000000000000000000000000000000000000000000000000000000000000000000000000000000000000000000000000000000000067
:401980000000000000000000000000000000000000000000000000000000000000000000000000000000000000000000000000000000000000000000000000000000000027
:4019C00000000000000000000000000000000000000000000000000000000000000000000000000000000000000000000000000000000000000000000000000000000000E7
:020000040003F7
:0200000480007A
:4000000001520040036500401418014038190140701A0140541B0140044C01400D4D0140025001400980887289388B0F8A049204960299019A02A401A801AC01B002B1011D
:40004000B204B601BB08BE05BF01D418D804D904DB04DF010308041005080641071009110A200C100E610F10102211101501160217281A011B451E641F442010210822084E
:400080002340251127102E0A2F0433203540360A37103D083E60451847404E124F9057085B015E04630A6C226D10754076297728C0F2C2FEC4F7CAE0CCF4CE70D070D23011
:4000C000D641D80C0580071308100AAC0F0C100912D01414152C17431A031C0C1E711F08201021712240230E25712620270628DC2A2230E031C0330F341F353039223A0284
:400100003B083F104002454049FF4A074BFF4C404D204EF04F055008580459045A045F01604061A862406320801381118204836884138530860C888089308A208C408E2002
:400140008F039208940A9503961498E099229B189C209EC0A103A304A615A703A8E0A903AC03AE14AF03B010B10CB20FB340B530B6E0B703BA08BE01BF01C026C104C50B4A
:40018000C60EC7C0C825C9FFCAFFCBFFCEF0CF44D00CD401D804D904DA04DB04DF01E6C0EA40EB02020405050602070408800A240B400C200D880F441080110413101514DE
:4001C000160119011A041B201C401D841F80200421082350250426202745288029052A042D092E402F843080310834103628380839043B403D103E023F84400444804604BE
:4002000048804C044E105004550156415C415D205F08600162408A028B488D21911092409388950199089C109E429F41A020A208A340A504A720AF40C0F2C2FFC4EECAF3B7
:40024000CC6ACEFAD0A4D220D6F0EC0208106101C202D8021040190174047810884098109D01A004AC04C408C608DE06E20110011C01000080800000400000004000000073
:400280001C0023043F180000081C00611F002023337F0C00023C00420010230003040000040800000C670018010000002C400F1F1038400000020A080000500065030200BD
:4002C000010C000E11FFFFFF62A0F0410C0000000000021204040404000000010000000000004002001030100010101200000000000000000000000000000000004040002D
:4003000000000000800040808000800000000000408B8B008000000000000000000000000000000000000000000000000000000000000000000000000000000000000000A7
:40034000000000000000000000000000000000000000000000000000000000000000000000000000000000000000000000000000000000000000000000000000000000007D
:40038000000000000000000000000000000000000000000000000000000000000000000000000000000000000000000000000000000000000000000000000000000000003D
:4003C00000000000000000000000000000000000000000000000000000000000000000000000000000000000000000000000000000000000000000000000000000000000FD
:4004000000000000000000000000000000000000000000000000000000000000000000000000000000000000000000000000000000000000000000000000000000000000BC
:0200000490006A
:0400000000004005B7
:0200000490105A
:04000000BC90ACAF55
:0200000490303A
:02000000E067B7
:0200000490402A
:4000000000000000000000000000000000000000000000000000000000000000000000000000000000000000000000000000000000000000000000000000000000000000C0
:400040000000000000000000000000000000000000000000000000000000000000000000000000000000000000000000000000000000000000000000000000000000000080
:400080000000000000000000000000000000000000000000000000000000000000000000000000000000000000000000000000000000000000000000000000000000000040
:4000C0000000000000000000000000000000000000000000000000000000000000000000000000000000000000000000000000000000000000000000000000000000000000
:0200000490501A
:0C00000000012E16106900012E1FF0D028
:00000001FF